{
  "_format": "hh-sol-artifact-1",
  "contractName": "VeriFi",
  "sourceName": "contracts/VeriFi.sol",
  "abi": [
    {
      "anonymous": false,
      "inputs": [
        {
          "indexed": true,
          "internalType": "bytes32",
          "name": "proofKey",
          "type": "bytes32"
        },
        {
          "indexed": true,
          "internalType": "address",
          "name": "author",
          "type": "address"
        },
        {
          "indexed": false,
          "internalType": "uint256",
          "name": "timestamp",
          "type": "uint256"
        }
      ],
      "name": "ProofAnchored",
      "type": "event"
    },
    {
      "inputs": [
        {
          "internalType": "string",
          "name": "proof",
          "type": "string"
        }
      ],
      "name": "anchor",
      "outputs": [],
      "stateMutability": "nonpayable",
      "type": "function"
    },
    {
      "inputs": [
        {
          "internalType": "bytes32",
          "name": "",
          "type": "bytes32"
        }
      ],
      "name": "anchors",
      "outputs": [
        {
          "internalType": "address",
          "name": "author",
          "type": "address"
        },
        {
          "internalType": "uint256",
          "name": "timestamp",
          "type": "uint256"
        }
      ],
      "stateMutability": "view",
      "type": "function"
    },
    {
      "inputs": [
        {
          "internalType": "string",
          "name": "proof",
          "type": "string"
        }
      ],
      "name": "getAnchor",
      "outputs": [
        {
          "internalType": "address",
          "name": "author",
          "type": "address"
        },
        {
          "internalType": "uint256",
          "name": "timestamp",
          "type": "uint256"
        }
      ],
      "stateMutability": "view",
      "type": "function"
    }
  ],
  "bytecode": "0x608060405234801561001057600080fd5b506105e0806100206000396000f3fe608060405234801561001057600080fd5b50600436106100415760003560e01c80630b5729d414610046578063921ee94f14610077578063b01b6d5314610093575b600080fd5b610060600480360381019061005b9190610387565b6100c4565b60405161006e92919061042e565b60405180910390f35b610091600480360381019061008c9190610387565b61017b565b005b6100ad60048036038101906100a8919061048d565b6102d4565b6040516100bb92919061042e565b60405180910390f35b600080600084846040516100d99291906104f9565b6040518091039020905060008060008381526020019081526020016000206040518060400160405290816000820160009054906101000a900473ffffffffffffffffffffffffffffffffffffffff1673ffffffffffffffffffffffffffffffffffffffff1673ffffffffffffffffffffffffffffffffffffffff1681526020016001820154815250509050806000015181602001519350935050509250929050565b6000828260405161018d9291906104f9565b60405180910390209050600080600083815260200190815260200160002060010154146101ef576040517f08c379a00000000000000000000000000000000000000000000000000000000081526004016101e69061056f565b60405180910390fd5b60405180604001604052803373ffffffffffffffffffffffffffffffffffffffff1681526020014281525060008083815260200190815260200160002060008201518160000160006101000a81548173ffffffffffffffffffffffffffffffffffffffff021916908373ffffffffffffffffffffffffffffffffffffffff160217905550602082015181600101559050503373ffffffffffffffffffffffffffffffffffffffff16817f3ad2f3b700515afdcba4d9dfe971870c4917a2a1e1ae0c0d6c79e8becafc6ca0426040516102c7919061058f565b60405180910390a3505050565b60006020528060005260406000206000915090508060000160009054906101000a900473ffffffffffffffffffffffffffffffffffffffff16908060010154905082565b600080fd5b600080fd5b600080fd5b600080fd5b600080fd5b60008083601f84011261034757610346610322565b5b8235905067ffffffffffffffff81111561036457610363610327565b5b6020830191508360018202830111156103805761037f61032c565b5b9250929050565b6000806020838503121561039e5761039d610318565b5b600083013567ffffffffffffffff8111156103bc576103bb61031d565b5b6103c885828601610331565b92509250509250929050565b600073ffffffffffffffffffffffffffffffffffffffff82169050919050565b60006103ff826103d4565b9050919050565b61040f816103f4565b82525050565b6000819050919050565b61042881610415565b82525050565b60006040820190506104436000830185610406565b610450602083018461041f565b9392505050565b6000819050919050565b61046a81610457565b811461047557600080fd5b50565b60008135905061048781610461565b92915050565b6000602082840312156104a3576104a2610318565b5b60006104b184828501610478565b91505092915050565b600081905092915050565b82818337600083830152505050565b60006104e083856104ba565b93506104ed8385846104c5565b82840190509392505050565b60006105068284866104d4565b91508190509392505050565b600082825260208201905092915050565b7f416c726561647920616e63686f72656400000000000000000000000000000000600082015250565b6000610559601083610512565b915061056482610523565b602082019050919050565b600060208201905081810360008301526105888161054c565b9050919050565b60006020820190506105a4600083018461041f565b9291505056fea264697066735822122047975bd3935fca929ea3b017aac76f56632c3565f97d4b7052215f31b10606b764736f6c63430008130033",
  "linkReferences": {},
  "deployedLinkReferences": {}
}